:10000000DC6D0020CD370100053501000D35010004
:10001000153501001D3501002535010000000000E7
:100020000000000000000000000000003535010065
:100030002D350100000000003B8D01002933010037
:100040004D350100553501005D3501006535010074
:100050006D350100753501007D35010085350100E4
:100060008D350100953501009D350100A535010054
:10007000AD350100B5350100BD350100C5350100C4
:10008000CD350100D5350100DD350100E535010034
:10009000ED350100F9350100013601000936010096
:1000A0001136010019360100213601002936010000
:1000B0003136010039360100413601004936010070
:1000C00051360100593601006136010069360100E0
:1000D0007136010079360100CD360100D5360100B8
:1000E000FD36010031370100393701004137010089
:1000F00049370100513701005937010061370100CC
:1001000069370100713701007D3701008537010033
:100110008D370100953701009D370100A53701009B
:10012000AD370100B5370100BD370100C53701000B
:1001300080B481B000AF38604EF60053CEF20003B9
:100140003A6842F0BE6242F42022DA6007F1040706
:10015000BD4680BC7047C04680B484B000AF3860F4
:100160004FF000037B604FF00003BB604FF00F03C4
:10017000FB603B685B68002B49D04EF60053CEF223
:100180000003DB686FEA030303F4E0634FEA132321
:100190007B607B68C3F10403BB607B68FA6822FA6A
:1001A00003F3FB603B685B781A46BB6802FA03F313
:1001B0007B603B689B781A46FB6802EA03037A6817
:1001C00042EA03037B607B684FEA03137B604EF2D5
:1001D0000013CEF200033A68127811467A68D2B260
:1001E0000B4483F800234EF20013CEF200033A686A
:1001F00012784FEA5212D2B23968097801F01F0121
:100200004FF0010000FA01F143F8221014E04EF221
:100210000013CEF200033A6812784FEA5212D2B2BB
:100220003968097801F01F014FF0010000FA01F16F
:1002300002F1200243F8221007F11007BD4680BCEE
:100240007047C04680B482B000AF786039604EF627
:100250000053CEF200033A6822F0604222F07F029F
:10026000796842EA01029A6007F10807BD4680BC3E
:100270007047C04680B482B000AF034639603B711E
:100280003B68002B0DD04EF60053CEF200034EF625
:100290000052CEF2000211693A7941EA02021A6173
:1002A0000EE04EF60053CEF200034EF60052CEF2B0
:1002B000000211693A796FEA020201EA02021A6148
:1002C00007F10807BD4680BC7047C04680B481B0C6
:1002D00000AF38603B68042B0CD14EF21003CEF215
:1002E00000034EF21002CEF20002126842F0040245
:1002F0001A600BE04EF21003CEF200034EF2100231
:10030000CEF20002126822F004021A6007F104071C
:10031000BD4680BC7047C04680B400AF42F20003C7
:10032000CEF204031B684FEA13431846BD4680BC57
:100330007047C04680B400AF42F20003CEF204031F
:100340001B684FEA03534FEA13531846BD4680BC5F
:100350007047C04680B482B000AF786039603B68B7
:10036000002B0DD042F20003CEF2040342F2000251
:10037000CEF2040251687A6841EA02025A600EE045
:1003800042F20003CEF2040342F20002CEF2040273
:1003900051687A686FEA020201EA02025A6007F1C4
:1003A0000807BD4680BC704780B482B000AF38609B
:1003B0004FF000037B6042F20003C4F202031B68AB
:1003C0007B607B6803F038037B607A683B6842EAB5
:1003D00003037B6042F20003C4F202037A681A60EE
:1003E00007F10807BD4680BC7047C04680B481B0A5
:1003F00000AF386042F20003C4F2020342F200028E
:10040000C4F20202126822F008021A6042F20003EB
:10041000C4F2020342F20002C4F2020211683A6816
:1004200041EA02021A6007F10407BD4680BC70472A
:1004300080B481B000AF386042F20003C4F202031E
:1004400042F20002C4F20202126822F010021A60A4
:1004500042F20003C4F2020342F20002C4F20202BA
:1004600011683A6841EA02021A6007F10407BD46C2
:1004700080BC704780B400AF42F20003C4F20203B4
:1004800040F22312C4F267525A6042F20003C4F2EF
:10049000020348F6AB12CCF6EF525A60BD4680BC60
:1004A0007047C04680B400AF42F20003C4F20203BA
:1004B00042F20002C4F20202126942F080021A61A2
:1004C000BD4680BC7047C04680B582B000AF386082
:1004D0004FF004037B6040F6FF7000F0E1FC034640
:1004E0007B607B68042B36D142F20003C4F2020326
:1004F00042F20002C4F20202126942F002021A61E0
:1005000042F20003C4F202033A685A6142F2000365
:10051000C4F2020342F20002C4F20202126942F083
:1005200040021A6140F6FF7000F0BAFC03467B609F
:100530007B68052B0FD042F20002C4F2020242F2A5
:100540000003C4F20203196941F6FD73C0F200030F
:1005500001EA030313617B68184607F10807BD46EB
:1005600080BDC04680B581B000AF4FF004033B6052
:1005700040F6FF7000F094FC03463B603B68042BA0
:1005800030D142F20003C4F2020342F20002C4F28C
:100590000202126942F004021A6142F20003C4F23C
:1005A000020342F20002C4F20202126942F0400267
:1005B0001A6140F6FF7000F073FC03463B603B6835
:1005C000052B0FD042F20002C4F2020242F20003F5
:1005D000C4F20203196941F6FB73C0F2000301EA99
:1005E000030313613B68184607F10407BD4680BD4D
:1005F00080B581B000AF4FF004033B6040F6FF7060
:1006000000F04EFC03463B603B68042B40F08580C5
:1006100042F20003C4F2020340F22312C4F2675212
:100620009A6042F20003C4F2020348F6AB12CCF621
:10063000EF529A6042F20003C4F2020342F2000257
:10064000C4F20202126942F020021A6142F200036F
:10065000C4F2020342F20002C4F20202126942F042
:1006600040021A6140F6FF7000F01AFC03463B603E
:100670003B68042B3CD142F20002C4F2020242F277
:100680000003C4F20203196941F6DF73C0F20003EC
:1006900001EA0303136142F20003C4F2020342F2CF
:1006A0000002C4F20202126942F010021A614FF60F
:1006B0000003C1F6FF734FF0A5021A804FF00F0040
:1006C00000F0EEFB03463B603B68052B24D042F272
:1006D0000002C4F2020242F20003C4F202031969EA
:1006E00041F6EF73C0F2000301EA0303136114E063
:1006F0003B68052B11D042F20002C4F2020242F222
:100700000003C4F20203196941F6EF73C0F200035B
:1007100001EA0303136100E000BF3B68184607F1DC
:100720000407BD4680BDC04680B584B000AF786088
:1007300039604FF00403FB604FF00003BB604FF0E3
:100740000F0000F0ADFB0346FB60FB68042B51D1AA
:1007500042F20003C4F2020342F20002C4F20202B7
:10076000126942F001021A617B683A6892B21A80FB
:100770004FF00F0000F094FB0346FB60FB68042B76
:1007800023D17B6803F10203BB60BB683A684FEA80
:10079000124292B21A804FF00F0000F081FB034624
:1007A000FB60FB68052B24D042F20002C4F2020277
:1007B00042F20003C4F20203196941F6FE73C0F26B
:1007C000000301EA0303136114E0FB68052B11D059
:1007D00042F20002C4F2020242F20003C4F2020337
:1007E000196941F6FE73C0F2000301EA03031361C5
:1007F00000E000BFFB68184607F11007BD4680BD4A
:1008000080B583B000AF78600B463B804FF00403A7
:10081000BB604FF00F0000F043FB0346BB60BB68BA
:10082000042B27D142F20003C4F2020342F2000279
:10083000C4F20202126942F001021A617B683A882E
:100840001A804FF00F0000F02BFB0346BB60BB6823
:10085000052B0FD042F20002C4F2020242F2000362
:10086000C4F20203196941F6FE73C0F2000301EA03
:1008700003031361BB68184607F10C07BD4680BD32
:1008800080B583B000AF78600B463B704FF0040337
:10089000BB604FF00F0000F003FB0346BB60BB687A
:1008A000042B39D142F20003C4F2020340F22312B6
:1008B000C4F267529A6042F20003C4F2020348F69F
:1008C000AB12CCF6EF529A6042F20003C4F202037C
:1008D00042F20002C4F20202126942F010021A61EE
:1008E0007B683A781A804FF00F0000F0D9FA03467F
:1008F000BB60BB68052B0FD042F20002C4F20202BB
:1009000042F20003C4F20203196941F6EF73C0F228
:10091000000301EA03031361BB68184607F10C07E3
:10092000BD4680BD80B584B000AF38604FF6FF7320
:10093000BB804FF6FF73FB804FF6FF733B814FF692
:10094000FF737B814FF00403FB603B686FEA030396
:100950003B603B689BB203F0FF03BB803B6803F442
:100960007F434FEA1323FB803B6803F47F034FEA86
:1009700013433B813B684FEA13637B814FF00F00C9
:1009800000F08EFA0346FB60FB68042B75D142F23F
:100990000003C4F2020340F22312C4F267529A60C9
:1009A00042F20003C4F2020348F6AB12CCF6EF5257
:1009B0009A6042F20003C4F2020342F20002C4F25F
:1009C0000202126942F010021A61BB88FF2B0BD0A1
:1009D0004FF60003C1F6FF73BA881A814FF00F007B
:1009E00000F05EFA0346FB60FB68042B0ED1FB8827
:1009F000FF2B0BD04FF60003C1F6FF73FA885A8124
:100A00004FF00F0000F04CFA0346FB60FB68042B2C
:100A10000ED13B89FF2B0BD04FF60003C1F6FF73BD
:100A20003A899A814FF00F0000F03AFA0346FB60D2
:100A3000FB68042B0ED17B89FF2B0BD04FF60003F4
:100A4000C1F6FF737A89DA814FF00F0000F028FABF
:100A50000346FB60FB68052B0FD042F20002C4F294
:100A6000020242F20003C4F20203196941F6EF7375
:100A7000C0F2000301EA03031361FB68184607F1A3
:100A80001007BD4680BDC04680B582B000AF38605B
:100A90004FF004037B6040F6FF7000F001FA03465C
:100AA0007B607B68042B40F0908042F20003C4F22C
:100AB000020340F22312C4F267529A6042F200032A
:100AC000C4F2020348F6AB12CCF6EF529A6042F23F
:100AD0000003C4F2020342F20002C4F202021269ED
:100AE00042F020021A6142F20003C4F2020342F211
:100AF0000002C4F20202126942F040021A6140F69A
:100B0000FF7000F0CDF903467B607B68042B47D172
:100B100042F20002C4F2020242F20003C4F20203F3
:100B2000196941F6DF73C0F2000301EA03031361A0
:100B300042F20003C4F2020342F20002C4F20202D3
:100B4000126942F010021A613B68002B07D04FF681
:100B50000003C1F6FF734FF000021A8006E04FF663
:100B60000003C1F6FF734FF0A5021A8040F6FF7034
:100B700000F096F903467B607B68052B24D042F297
:100B80000002C4F2020242F20003C4F20203196935
:100B900041F6EF73C0F2000301EA0303136114E0AE
:100BA0007B68052B11D042F20002C4F2020242F22D
:100BB0000003C4F20203196941F6DF73C0F20003B7
:100BC00001EA0303136100E000BF7B68184607F1E8
:100BD0000807BD4680BDC04680B584B000AF13464F
:100BE00002463A810A46BA803B804FF00403FB601C
:100BF00042F20003C4F2020340F22312C4F267522D
:100C00009A6042F20003C4F2020348F6AB12CCF63B
:100C1000EF529A604FF00F0000F042F90346FB607C
:100C2000FB68042B35D142F20003C4F2020342F206
:100C30000002C4F20202126942F010021A614FF679
:100C40000003C1F6FF733988BA8841EA020291B203
:100C50003A8941EA020292B242F0F80292B25A8014
:100C60004FF00F0000F01CF90346FB60FB68052BFA
:100C70000FD042F20002C4F2020242F20003C4F2B8
:100C80000203196941F6EF73C0F2000301EA03039E
:100C90001361FB68184607F11007BD4680BDC046CA
:100CA00080B400AF42F20003C4F20203DB694FEAF2
:100CB00093031846BD4680BC7047C04680B400AF61
:100CC00042F20003C4F202031B6A1846BD4680BC10
:100CD0007047C04680B481B000AF4FF000033B6066
:100CE00042F20003C4F20203DB6903F00203002BAB
:100CF00003D04FF001033B6002E04FF000033B6084
:100D00003B68184607F10407BD4680BC7047C046E3
:100D100080B481B000AF4FF000033B6042F20003AB
:100D2000C4F202031B6803F02003002B03D04FF032
:100D300001033B6002E04FF000033B603B68184654
:100D400007F10407BD4680BC7047C04680B482B03E
:100D500000AF03463960BB803B68002B0DD042F2E8
:100D60000003C4F2020342F20002C4F2020211695B
:100D7000BA8841EA02021A610EE042F20003C4F2AC
:100D8000020342F20002C4F202021169BA886FEA59
:100D9000020201EA02021A6107F10807BD4680BC9F
:100DA0007047C04680B482B000AF03463B804FF02E
:100DB00000037B603B88012B11D142F20003C4F297
:100DC0000203DB6903F00103DBB2002B03D04FF019
:100DD00001037B6014E04FF000037B6010E042F2FF
:100DE0000003C4F20203DA683B8802EA0303002B23
:100DF00003D04FF001037B6002E04FF000037B6003
:100E00007B68184607F10807BD4680BC7047C0469E
:100E100080B481B000AF03463B8042F20003C4F2CD
:100E200002033A88DA6007F10407BD4680BC7047C8
:100E300080B481B000AF4FF004033B6042F2000386
:100E4000C4F20203DB6803F00103DBB2002B03D022
:100E50004FF001033B601CE042F20003C4F20203C6
:100E6000DB6803F00403002B03D04FF002033B6068
:100E70000FE042F20003C4F20203DB6803F0100348
:100E8000002B03D04FF003033B6002E04FF004035C
:100E90003B603B68184607F10407BD4680BC7047BD
:100EA00080B582B000AF38604FF004037B60FFF77D
:100EB000BFFF03467B6009E000F01AF8FFF7B8FFB8
:100EC00003467B603B6803F1FF333B607B68012B8B
:100ED00002D13B68002BEFD13B68002B02D14FF0D1
:100EE00005037B607B68184607F10807BD4680BD97
:100EF00080B481B000AF4FF000033B604FF0FF03C0
:100F00003B6003E03B6803F1FF333B603B68002B31
:100F1000F8D107F10407BD4680BC704780B581B0A9
:100F200000AF38603A6840F60003C4F201039A4209
:100F30000CD14FF004004FF0010100F059FF4FF0C9
:100F400004004FF0000100F053FF76E03A6840F6ED
:100F50000043C4F201039A420CD14FF008004FF055
:100F6000010100F045FF4FF008004FF0000100F0D4
:100F70003FFF62E03A6841F20003C4F201039A4283
:100F80000CD14FF010004FF0010100F031FF4FF095
:100F900010004FF0000100F02BFF4EE03A6841F2E4
:100FA0000043C4F201039A420CD14FF020004FF0ED
:100FB000010100F01DFF4FF020004FF0000100F094
:100FC00017FF3AE03A6841F60003C4F201039A427F
:100FD0000CD14FF040004FF0010100F009FF4FF03D
:100FE00040004FF0000100F003FF26E03A6841F6B0
:100FF0000043C4F201039A420CD14FF080004FF03D
:10100000010100F0F5FE4FF080004FF0000100F00C
:10101000EFFE12E03A6842F20003C4F201039A4282
:101020000BD14FF480704FF0010100F0E1FE4FF45E
:1010300080704FF0000100F0DBFE07F10407BD46B1
:1010400080BDC04680B500AF4FF001004FF00101F8
:1010500000F0CEFE4FF001004FF0000100F0C8FE9E
:10106000BD4680BD80B488B000AF786039604FF075
:101070000003BB604FF00003FB604FF000033B61D7
:101080004FF000037B614FF00003BB614FF00003A2
:10109000FB613B689B6803F00F03BB603B689B6888
:1010A00003F01003002B05D03B685B68BA6842EA86
:1010B0000303BB603B681B8803F0FF03002B51D088
:1010C0007B681B68BB614FF000033B6144E03B69F8
:1010D0004FF0010202FA03F37B613B681B881A465A
:1010E0007B6902EA0303FB60FA687B699A422FD1AD
:1010F0003B694FEA83037B617B694FF00F0202FA81
:1011000003F3FB61FB696FEA0303BA6902EA0303B5
:10111000BB617B69BA6802FA03F3BA6942EA030366
:10112000BB613B689B68282B07D13B694FF00102EC
:1011300002FA03F27B685A610AE03B689B68482B1D
:1011400006D13B694FF0010202FA03F27B681A6193
:101150003B6903F101033B613B69072BB7D97B680E
:10116000BA691A603B681B88FF2B56D97B685B689D
:10117000BB614FF000033B6149E03B6903F10803A9
:101180004FF0010202FA03F37B613B681B881A46A9
:101190007B6902EA0303FB60FA687B699A4232D1F9
:1011A0003B694FEA83037B617B694FF00F0202FAD0
:1011B00003F3FB61FB696FEA0303BA6902EA030305
:1011C000BB617B69BA6802FA03F3BA6942EA0303B6
:1011D000BB613B689B68282B08D13B6903F108037E
:1011E0004FF0010202FA03F27B685A613B689B6888
:1011F000482B08D13B6903F108034FF0010202FAC2
:1012000003F27B681A613B6903F101033B613B69AF
:10121000072BB2D97B68BA695A6007F12007BD462F
:1012200080BC704780B481B000AF38603B684FF637
:10123000FF721A803B684FF002025A603B684FF021
:1012400004029A6007F10407BD4680BC7047C0469F
:1012500080B483B000AF78600B463B804FF0000352
:10126000FB727B689A683B8802EA0303002B03D079
:101270004FF00103FB7202E04FF00003FB72FB7AB8
:10128000184607F10C07BD4680BC704780B481B09A
:1012900000AF38603B689B689BB2184607F10407B3
:1012A000BD4680BC7047C04680B483B000AF786054
:1012B0000B463B804FF00003FB727B68DA683B888B
:1012C00002EA0303002B03D04FF00103FB7202E09C
:1012D0004FF00003FB72FB7A184607F10C07BD467E
:1012E00080BC704780B481B000AF38603B68DB6879
:1012F0009BB2184607F10407BD4680BC7047C04644
:1013000080B482B000AF78600B463B803A887B683F
:101310001A6107F10807BD4680BC704780B482B0EF
:1013200000AF78600B463B803A887B685A6107F1D2
:101330000807BD4680BC704780B483B000AFB8607A
:101340000B463A60BB803B68002B03D0BA88BB6871
:101350001A6102E0BA88BB685A6107F10C07BD4602
:1013600080BC704780B482B000AF78600B463B8091
:101370003A887B68DA6007F10807BD4680BC704791
:1013800080B483B000AF78600B463B804FF480336D
:10139000BB603B88BA6842EA0303BB607B68BA68FB
:1013A0009A613A887B689A617B68BA689A617B68BF
:1013B0009B69BB607B689B69BB6007F10C07BD46FE
:1013C00080BC704780B483B000AF02460B463A71D0
:1013D0003B704FF00003BB6040F20003C4F2010316
:1013E0001B68BB60BA684FF68073C0F2000302EA64
:1013F0000303BB603B794FEA0313BA6842EA030375
:10140000BB603B78BA6842EA0303BB6040F200036A
:10141000C4F20103BA681A6007F10C07BD4680BC2C
:101420007047C04680B481B000AF386040F21C0302
:10143000C4F220233A681A6007F10407BD4680BC55
:101440007047C04680B486B000AF786039604FF016
:101450000003BB604FF00003FB604FF000033B61F3
:101460004FF000037B6140F20003C4F201035B68AC
:101470003B617B6803F470234FEA13437B617B6815
:101480004FEA03434FEA1343BB607B6803F4401306
:10149000B3F5401F10D13B6923F070633B6140F20C
:1014A0000003C4F2010340F20002C4F201025268D8
:1014B00022F070625A6028E07B6803F48013002BEE
:1014C00011D07B694FF0030202FA03F3FB60FB6863
:1014D0006FEA03033A6902EA03033B613B6943F0A5
:1014E00070633B6111E07B684FEA53534FEA03138B
:1014F000BA6802FA03F36FEA03033A6902EA0303E4
:101500003B613B6943F070633B613B68002B0BD050
:101510007B684FEA53534FEA0313BA6802FA03F3A6
:101520003A6942EA03033B6140F20003C4F201035B
:101530003A695A6007F11807BD4680BC7047C0463B
:1015400080B483B000AF02460B463A713B704FF057
:101550000003BB603B7803F003034FEA83034FF0C3
:101560000F0202FA03F3BB6040F20003C4F201036E
:101570003A784FEA9202D2B2104640F20002C4F228
:10158000010239784FEA9101C9B201F1020152F822
:101590002110BA686FEA020201EA020100F10202B8
:1015A00043F8221040F20003C4F201033A784FEAF4
:1015B0009202D2B2104640F20002C4F2010239781F
:1015C0004FEA9101C9B201F1020152F8211097F8D6
:1015D00004C03A7802F003024FEA82020CFA02F2E7
:1015E00041EA020100F1020243F8221007F10C0760
:1015F000BD4680BC7047C04680B481B000AF386043
:1016000040F2DC03C4F220233A681A6007F10407B1
:10161000BD4680BC7047C04680B400AF41F20003B5
:10162000C4F2020341F20002C4F20202126842F064
:1016300001021A6041F20002C4F2020241F2000308
:10164000C4F20203596840F20003CFF6FF0301EA37
:101650000303536041F20003C4F2020341F20002AB
:10166000C4F20202126822F0847222F480321A60FC
:1016700041F20003C4F2020341F20002C4F202028A
:10168000126822F480221A6041F20003C4F20203BD
:1016900041F20002C4F20202526822F4FE025A60D1
:1016A00041F20003C4F202034FF41F029A60BD46E8
:1016B00080BC704780B481B000AF386041F2000355
:1016C000C4F2020341F20002C4F20202126822F4E0
:1016D00080321A6041F20003C4F2020341F20002B8
:1016E000C4F20202126822F480221A603B68B3F549
:1016F000803F03D0B3F5802F0DD018E041F20003F6
:10170000C4F2020341F20002C4F20202126842F47F
:1017100080321A600BE041F20003C4F2020341F28E
:101720000002C4F20202126842F4A0221A6007F119
:101730000407BD4680BC704780B583B000AF4FF052
:1017400000033B604FF000037B604FF00003BB6081
:101750004FF0310000F0D0FB0346BB603B6803F163
:1017600001033B603B68B3F5A06F02D0BB68002B60
:10177000EED04FF0310000F0BFFB0346002B03D04A
:101780004FF001037B6002E04FF000037B607B6859
:10179000184607F10C07BD4680BDC04680B482B034
:1017A00000AF03463B704FF000037B6041F2000343
:1017B000C4F202031B687B607B6823F0F8037B6044
:1017C0003B784FEAC3037A6842EA03037B6041F245
:1017D0000003C4F202037A681A6007F10807BD46E5
:1017E00080BC704780B481B000AF386040F2000325
:1017F000C4F242233A681A6007F10407BD4680BC70
:101800007047C04680B483B000AF786039604FF055
:101810000003BB6041F20003C4F202035B68BB60DB
:10182000BB6823F47C13BB607A683B6842EA03031D
:10183000BA6842EA0303BB6041F20003C4F2020348
:10184000BA685A6007F10C07BD4680BC7047C046B5
:1018500080B481B000AF386040F26003C4F242232C
:101860003A681A6007F10407BD4680BC7047C0465D
:1018700080B482B000AF38604FF000037B6041F26B
:101880000003C4F202035B687B607B6823F0030300
:101890007B607A683B6842EA03037B6041F20003A5
:1018A000C4F202037A685A6007F10807BD4680BC9B
:1018B0007047C04680B400AF41F20003C4F2020397
:1018C0005B68DBB203F00C031846BD4680BC704772
:1018D00080B482B000AF38604FF000037B6041F20B
:1018E0000003C4F202035B687B607B6823F0F003B3
:1018F0007B607A683B6842EA03037B6041F2000345
:10190000C4F202037A685A6007F10807BD4680BC3A
:101910007047C04680B482B000AF38604FF000031B
:101920007B6041F20003C4F202035B687B607B686A
:1019300023F4E0637B607A683B6842EA03037B60E0
:1019400041F20003C4F202037A685A6007F1080703
:10195000BD4680BC7047C04680B482B000AF3860DE
:101960004FF000037B6041F20003C4F202035B68A6
:101970007B607B6823F460537B603B684FEAC30362
:101980007A6842EA03037B6041F20003C4F2020377
:101990007A685A6007F10807BD4680BC7047C046A8
:1019A00080B482B000AF034639603B713B68002BC6
:1019B0000FD041F20903C4F2020341F20902C4F25A
:1019C00002021278D1B23A7941EA0202D2B21A7016
:1019D00011E041F20903C4F2020341F20902C4F228
:1019E00002021278D1B23A796FEA0202D2B201EA67
:1019F0000202D2B21A7007F10807BD4680BC7047D8
:101A000080B481B000AF386040F2D803C4F2422302
:101A10003A681A6007F10407BD4680BC7047C046AB
:101A200080B482B000AF38604FF000037B6041F2B9
:101A30000003C4F202035B687B607B6823F44043CD
:101A40007B607A683B6842EA03037B6041F20003F3
:101A5000C4F202037A685A6007F10807BD4680BCE9
:101A60007047C04680B481B000AF03463B7041F27E
:101A70002003C4F202034FF000021A7041F2200367
:101A8000C4F202034FF000021A703B78012B02D01F
:101A9000042B08D00EE041F22003C4F202034FF001
:101AA00001021A7006E041F22003C4F202034FF073
:101AB00005021A7007F10407BD4680BC7047C04696
:101AC00080B481B000AF386040F28043C4F242235A
:101AD0003A681A6007F10407BD4680BC7047C046EB
:101AE00080B481B000AF386041F20003C4F2020359
:101AF00041F20002C4F20202116A3A6841EA0202AB
:101B00001A6207F10407BD4680BC704780B481B0FB
:101B100000AF386040F23C43C4F242233A681A6096
:101B200007F10407BD4680BC7047C04680B485B04D
:101B300000AF38604FF000037B604FF00003BB60E4
:101B40004FF00003FB604FF000033B6141F20003E4
:101B5000C4F202035B6803F00C037B607B68042B18
:101B60000AD0082B0FD0002B4DD13A6841F2002348
:101B7000C0F27A0313604CE03A6841F20023C0F2ED
:101B80007A03136045E041F20003C4F202035B688C
:101B900003F47013BB6041F20003C4F202035B68FC
:101BA00003F48033FB60BB684FEA934303F1020305
:101BB000BB60FB68002B09D1BA6840F60013C0F285
:101BC0003D0303FB02F23B681A6022E041F200038E
:101BD000C4F202035B6803F40033002B09D0BA6837
:101BE00040F60013C0F23D0303FB02F23B681A60AB
:101BF0000FE0BA6841F20023C0F27A0303FB02F25D
:101C00003B681A6005E03A6841F20023C0F27A03AB
:101C1000136041F20003C4F202035B6803F0F003B7
:101C20007B607B684FEA13137B607A6840F20003A5
:101C3000C2F200039B5CDBB23B613B681A683B6904
:101C400022FA03F23B685A6041F20003C4F2020335
:101C50005B6803F4E0637B607B684FEA13237B607F
:101C60007A6840F20003C2F200039B5CDBB23B6186
:101C70003B685A683B6922FA03F23B689A6041F27A
:101C80000003C4F202035B6803F460537B607B686B
:101C90004FEAD3237B607A6840F20003C2F200036C
:101CA0009B5CDBB23B613B685A683B6922FA03F2FA
:101CB0003B68DA6041F20003C4F202035B6803F49C
:101CC00040437B607B684FEA93337B607A6840F2E5
:101CD0001003C2F200039B5CDBB23B613B68DA6835
:101CE0003B69B2FBF3F23B681A6107F11407BD468A
:101CF00080BC704780B482B000AF786039603B68C8
:101D0000002B0DD041F20003C4F2020341F20002A5
:101D1000C4F2020251697A6841EA02025A610EE095
:101D200041F20003C4F2020341F20002C4F20202D3
:101D300051697A686FEA020201EA02025A6107F108
:101D40000807BD4680BC704780B482B000AF7860A1
:101D500039603B68002B0DD041F20003C4F202034E
:101D600041F20002C4F2020291697A6841EA020279
:101D70009A610EE041F20003C4F2020341F2000254
:101D8000C4F2020291697A686FEA020201EA020271
:101D90009A6107F10807BD4680BC704780B482B0E5
:101DA00000AF786039603B68002B0DD041F2000332
:101DB000C4F2020341F20002C4F20202D1697A685D
:101DC00041EA0202DA610EE041F20003C4F20203CA
:101DD00041F20002C4F20202D1697A686FEA02029B
:101DE00001EA0202DA6107F10807BD4680BC7047CC
:101DF00080B482B000AF786039603B68002B0DD0B2
:101E000041F20003C4F2020341F20002C4F20202F2
:101E1000D1687A6841EA0202DA600EE041F200031A
:101E2000C4F2020341F20002C4F20202D1687A68ED
:101E30006FEA020201EA0202DA6007F10807BD4612
:101E400080BC704780B482B000AF786039603B6876
:101E5000002B0DD041F20003C4F2020341F2000254
:101E6000C4F2020211697A6841EA02021A610EE0C4
:101E700041F20003C4F2020341F20002C4F2020282
:101E800011697A686FEA020201EA02021A6107F137
:101E90000807BD4680BC704780B481B000AF386091
:101EA00040F24043C4F242233A681A6007F1040743
:101EB000BD4680BC7047C04680B481B000AF38607A
:101EC00040F24C03C4F242233A681A6007F1040757
:101ED000BD4680BC7047C04680B481B000AF0346A9
:101EE0003B7041F20703C4F202033A781A7007F11B
:101EF0000407BD4680BC704780B484B000AF034681
:101F00003B704FF000037B604FF00003BB604FF06D
:101F10000003FB603B784FEA5313DBB27B607B68C6
:101F2000012B06D141F20003C4F202031B68BB601F
:101F30000FE07B68022B06D141F20003C4F20203DA
:101F40001B6ABB6005E041F20003C4F202035B6A56
:101F5000BB603B7803F01F037B607B68BA6822FAA2
:101F600003F303F00103DBB2002B03D04FF00103B6
:101F7000FB6002E04FF00003FB60FB68184607F1CE
:101F80001007BD4680BC704780B400AF41F200032B
:101F9000C4F2020341F20002C4F20202526A42F0A9
:101FA00080725A62BD4680BC7047C04680B482B021
:101FB00000AF03463B704FF000037B6041F200032B
:101FC000C4F202039A683B7802EA0303002B03D0B1
:101FD0004FF001037B6002E04FF000037B607B6801
:101FE000184607F10807BD4680BC704780B481B031
:101FF00000AF03463B7041F20A03C4F202033A7891
:102000001A7007F10407BD4680BC704780B400AF6A
:1020100048F20003C4F201034FF000021A6048F2D4
:102020000003C4F201034FF000025A6048F20003BB
:10203000C4F201034FF000029A6048F20003C4F2B8
:1020400001034FF00002DA6048F20003C4F201031A
:102050004FF000025A6248F20003C4F201034FF04D
:1020600000029A6248F20003C4F201034FF000023A
:10207000DA6248F20003C4F2010340F2FF72C0F2D8
:10208000C0029A6348F20003C4F201034FF0000259
:10209000DA63BD4680BC704780B482B000AF386060
:1020A0004FF000037B6048F20003C4F201035B6859
:1020B0007B607B6823F4FC4323F0FF037B603B6879
:1020C0001B7D1A463B689B6842EA03023B685B68DB
:1020D00042EA03023B68DB6842EA03023B681B6892
:1020E00042EA03023B681B6942EA03037A6842EA58
:1020F00003037B6048F20003C4F201037A685A606C
:1021000007F10807BD4680BC7047C04680B481B067
:1021100000AF38603B684FF000021A753B684FF023
:1021200000021A603B684FF000025A603B684FF0B3
:1021300000029A603B684FF00002DA603B684FF0A3
:1021400000021A6107F10407BD4680BC7047C04613
:1021500080B481B000AF386040F2A003C4F23023F5
:102160003A681A6007F10407BD4680BC7047C04654
:1021700080B481B000AF386048F20003C4F20103BC
:1021800048F20002C4F20102126822F003021A604F
:1021900048F20003C4F2010348F20002C4F2010253
:1021A00011683A6841EA02021A6007F10407BD4665
:1021B00080BC704780B400AF48F20003C4F2010352
:1021C0001B6803F003031846BD4680BC7047C04639
:1021D00080B482B000AF786039603B68002B0DD0CE
:1021E00048F20003C4F2010348F20002C4F2010203
:1021F000D16B7A6841EA0202DA630EE048F200032A
:10220000C4F2010348F20002C4F20102D16B7A6801
:102210006FEA020201EA0202DA6307F10807BD462B
:1022200080BC704780B481B000AF386040F28C53FE
:10223000C4F230233A681A6007F10407BD4680BC37
:102240007047C04680B482B000AF38604FF00003E2
:102250007B6048F20003C4F201033A6812689A6096
:1022600048F20003C4F20103DB687B607B6823F45F
:10227000FE6323F00F037B603B685A683B689B68F2
:1022800042EA03023B68DB6842EA03023B681B69DF
:1022900042EA03037A6842EA03037B6048F20003E0
:1022A000C4F201037A68DA6007F10807BD4680BC12
:1022B0007047C04680B481B000AF38603B684FF0D3
:1022C00000021A603B684FF000025A603B684FF012
:1022D00000029A603B684FF00002DA603B684FF002
:1022E00000021A6107F10407BD4680BC7047C04672
:1022F00080B400AF48F20003C4F201031B69DBB2F3
:102300001846BD4680BC704780B482B000AF3860CC
:102310004FF000037B603A6848F21403C4F20103F3
:1023200013447B607B681B68184607F10807BD46AD
:1023300080BC704780B482B000AF38604FF00003BB
:102340007B6048F20003C4F201033A6812685A62E3
:1023500048F20003C4F201033A6852689A6248F2F4
:102360000003C4F20103DB6A7B607B6823F0F703A0
:102370007B603B689A683B68DB6842EA03023B6823
:102380001B6942EA03023B685B6942EA03037A681D
:1023900042EA03037B6048F20003C4F201037A6857
:1023A000DA6207F10807BD4680BC704780B481B08F
:1023B00000AF38603B684FF0FF321A603B684FF067
:1023C00000025A603B684FF000029A603B684FF091
:1023D0000002DA603B684FF000021A613B684FF080
:1023E00000025A6107F10407BD4680BC7047C04631
:1023F00080B400AF48F20003C4F201031B6B18461F
:10240000BD4680BC7047C04680B400AF48F20003B0
:10241000C4F20103D3F880301846BD4680BC704733
:1024200080B481B000AF386048F20003C4F2010309
:102430003A68C3F8802007F10407BD4680BC7047A6
:1024400080B400AF48F20003C4F201039B6C18464D
:10245000BD4680BC7047C04680B481B000AF3860D4
:1024600040F2A053C4F230233A681A6007F104071F
:10247000BD4680BC7047C04680B481B000AF3860B4
:1024800040F2A453C4F230233A681A6007F10407FB
:10249000BD4680BC7047C04680B481B000AF386094
:1024A00040F2A853C4F230233A681A6007F10407D7
:1024B000BD4680BC7047C04680B481B000AF386074
:1024C00040F2AC53C4F230233A681A6007F10407B3
:1024D000BD4680BC7047C04680B481B000AF386054
:1024E00040F2AC13C4F230233A681A6007F10407D3
:1024F000BD4680BC7047C04680B481B000AF386034
:1025000040F2B013C4F230233A681A6007F10407AE
:10251000BD4680BC7047C04680B481B000AF386013
:1025200040F2B413C4F230233A6802F00102002AE8
:1025300014BF002201221A6007F10407BD4680BCC7
:102540007047C04680B481B000AF386040F2B81325
:10255000C4F230233A681A6007F10407BD4680BC14
:102560007047C04680B482B000AF38604FF00003BF
:102570007B6048F20003C4F201035A6B3B6802EA35
:102580000303002B03D04FF001037B6002E04FF008
:1025900000037B607B68184607F10807BD4680BCD6
:1025A0007047C04680B481B000AF386048F2000385
:1025B000C4F201033A689A6307F10407BD4680BC80
:1025C0007047C04680B482B000AF38604FF000035F
:1025D0007B6048F20003C4F201035A6B3B6802EAD5
:1025E0000303002B03D04FF001037B6002E04FF0A8
:1025F00000037B607B68184607F10807BD4680BC76
:102600007047C04680B481B000AF386048F2000324
:10261000C4F201033A689A6307F10407BD4680BC1F
:102620007047C04680B581B000AF38603A6843F665
:102630000003C4F201039A420CD14FF480404FF0E2
:102640000101FFF7D5FB4FF480404FF00001FFF789
:10265000CFFB4EE03A6844F20043C4F200039A42D2
:102660000CD14FF400304FF00101FFF7EBFB4FF4BA
:1026700000304FF00001FFF7E5FB3AE03A6844F61E
:102680000003C4F200039A420CD14FF480204FF0B3
:102690000101FFF7D7FB4FF480204FF00001FFF757
:1026A000D1FB26E03A6844F60043C4F200039A42A4
:1026B0000CD14FF400204FF00101FFF7C3FB4FF4A2
:1026C00000204FF00001FFF7BDFB12E03A6845F231
:1026D0000003C4F200039A420BD14FF480104FF074
:1026E0000101FFF7AFFB4FF480104FF00001FFF73F
:1026F000A9FB07F10407BD4680BDC04680B58CB07C
:1027000000AF786039604FF00003FB614FF00003C9
:102710003B624FF000037B624FF00003BB624FF05F
:102720000003FB627B68FB627B681B8A9BB2FB61D8
:10273000FA694CF6FF73C0F2000302EA0303FB617F
:102740003B68DB88FA6942EA0303FB61FB699AB2E2
:102750007B681A827B689B899BB2FB61FA694EF6A3
:10276000F313C0F2000302EA0303FB613B689A889B
:102770003B681B8942EA03039AB23B685B8942EAE1
:1027800003039BB2FA6942EA0303FB61FB699AB255
:102790007B689A817B689B8A9BB2FB61FA694FF6E2
:1027A000FF43C0F2000302EA0303FB613B689B891D
:1027B000FA6942EA0303FB61FB699AB27B689A8279
:1027C00007F108031846FFF7B1F9FA6A43F6000368
:1027D000C4F201039A4202D17B693B6201E03B698A
:1027E0003B623A6A13464FEA830313444FEA83027B
:1027F0001A443B681B684FEA8303B2FBF3F37B6226
:102800007A6A48F21F53C5F2EB13A3FB02134FEA97
:1028100053134FEA0313FB61FB694FEA13134FF0A5
:10282000640202FB03F37A6AC3EB0203BB62BB6A76
:102830004FEA031303F1320248F21F53C5F2EB13C0
:10284000A3FB02134FEA531303F00F03FA6942EAA2
:102850000303FB61FB699AB27B681A8107F13007B9
:10286000BD4680BD80B481B000AF38603B684FF496
:1028700016521A603B684FF000029A803B684FF096
:102880000002DA803B684FF000021A813B684FF08B
:102890000C025A813B684FF000029A8107F104074D
:1028A000BD4680BC7047C04680B483B000AF78603E
:1028B00039604FF00003BB607B681B8A9BB2BB6032
:1028C000BA684FF2FF03C0F2000302EA0303BB60E1
:1028D0003B681A883B685B8842EA03039AB23B680C
:1028E0009B8842EA03039AB23B68DB8842EA03030F
:1028F0009BB2BA6842EA0303BB60BB689AB27B68CA
:102900001A8207F10C07BD4680BC704780B481B0C5
:1029100000AF38603B684FF000021A803B684FF010
:1029200000025A803B684FF000029A803B684FF0EB
:102930000002DA8007F10407BD4680BC7047C0463C
:1029400080B482B000AF786039603B68002B08D05B
:102950007B689B899BB243F400539AB27B689A814F
:102960000CE07B689B899BB21A464DF6FF73C0F260
:10297000000302EA03031A467B689A8107F10807FD
:10298000BD4680BC7047C04680B487B000AFB86019
:102990000B463A60BB804FF00003FB604FF0000332
:1029A0003B614FF000037B614FF00003BB61BB68EC
:1029B000BB61BB88DBB24FEA5313DBB2FB60BB8861
:1029C00003F01F033B613B694FF0010202FA03F37E
:1029D0007B61FB68012B04D1BB6903F10C03BB6174
:1029E0000BE0FB68022B04D1BB6903F11003BB6150
:1029F00003E0BB6903F11403BB613B68002B07D004
:102A0000BB69BA6911687A6941EA02021A6008E092
:102A1000BB69BA6911687A696FEA020201EA0202C7
:102A20001A6007F11C07BD4680BC704780B483B0B4
:102A300000AFB8600B463A60BB803B68002B09D002
:102A4000BB689B8A9AB2BB8842EA03039AB2BB680E
:102A50009A820BE0BB689B8A9AB2BB886FEA030339
:102A60009BB202EA03039AB2BB689A8207F10C0791
:102A7000BD4680BC7047C04680B482B000AF78606D
:102A80000B463B707B681B8A9BB21A464FF6F0736D
:102A9000C0F2000302EA03031A467B681A827B68CD
:102AA0001B8A9AB23B7842EA03039AB27B681A8285
:102AB00007F10807BD4680BC7047C04680B482B0AD
:102AC00000AF78600B463B807B689B899BB21A46BF
:102AD0004FF2FF73C0F2000302EA03031A467B6859
:102AE0009A817B689B899AB23B8842EA03039AB237
:102AF0007B689A8107F10807BD4680BC7047C046D5
:102B000080B482B000AF786039603B68002B08D099
:102B10007B689B899BB243F002039AB27B689A81DF
:102B20000CE07B689B899BB21A464FF6FD73C0F29E
:102B3000000302EA03031A467B689A8107F108073B
:102B4000BD4680BC7047C04680B482B000AF78609C
:102B50000B463B807B681B8A9BB21A464FF6DF739D
:102B6000C0F2000302EA03031A467B681A827B68FC
:102B70001B8A9AB23B8842EA03039AB27B681A82A4
:102B800007F10807BD4680BC7047C04680B482B0DC
:102B900000AF786039603B68002B08D07B681B8AE7
:102BA0009BB243F480439AB27B681A820CE07B6844
:102BB0001B8A9BB21A464BF6FF73C0F2000302EA6F
:102BC00003031A467B681A8207F10807BD4680BCDA
:102BD0007047C04680B482B000AF78600B463B803F
:102BE0003B884FEAC3534FEAD3537A68938007F187
:102BF0000807BD4680BC704780B481B000AF386024
:102C00003B689B889BB24FEAC3534FEAD3531846A5
:102C100007F10407BD4680BC7047C04680B481B050
:102C200000AF38603B689B899BB243F001039AB2C6
:102C30003B689A8107F10407BD4680BC7047C046D7
:102C400080B482B000AF78600B463B707B681B8B12
:102C50009BB203F0FF037A6813837B681B8B9AB2E5
:102C60003B784FEA03239BB242EA03039AB27B68A4
:102C70001A8307F10807BD4680BC704780B482B054
:102C800000AF78600B463B707B681B8B9BB203F4F4
:102C90007F437A6813837B681B8B9AB23B7842EA46
:102CA00003039AB27B681A8307F10807BD4680BC0C
:102CB0007047C04680B482B000AF786039603B682E
:102CC000002B08D07B689B8A9BB243F020039AB20A
:102CD0007B689A820CE07B689B8A9BB21A464FF60F
:102CE000DF73C0F2000302EA03031A467B689A828C
:102CF00007F10807BD4680BC7047C04680B482B06B
:102D000000AF786039603B68002B08D07B689B8AF5
:102D10009BB243F010039AB27B689A820CE07B6806
:102D20009B8A9BB21A464FF6EF73C0F2000302EA89
:102D300003031A467B689A8207F10807BD4680BCE8
:102D40007047C04680B482B000AF786039603B689D
:102D5000002B08D07B689B8A9BB243F008039AB291
:102D60007B689A820CE07B689B8A9BB21A464FF67E
:102D7000F773C0F2000302EA03031A467B689A82E3
:102D800007F10807BD4680BC7047C04680B482B0DA
:102D900000AF78600B463B807B689B8A9BB21A46EB
:102DA0004FF6FB73C0F2000302EA03031A467B6886
:102DB0009A827B689B8A9AB23B8842EA03039AB262
:102DC0007B689A8207F10807BD4680BC7047C04601
:102DD00080B482B000AF786039603B68002B08D0C7
:102DE0007B689B8A9BB243F002039AB27B689A820B
:102DF0000CE07B689B8A9BB21A464FF6FD73C0F2CB
:102E0000000302EA03031A467B689A8207F1080767
:102E1000BD4680BC7047C04680B483B000AF7860C8
:102E20000B463B804FF00003BB607B681B889AB267
:102E30003B8802EA03039BB2002B03D04FF001034F
:102E4000BB6002E04FF00003BB60BB68184607F1AF
:102E50000C07BD4680BC704780B482B000AF78607C
:102E60000B463B803B886FEA03039AB27B681A806B
:102E700007F10807BD4680BC7047C04680B486B0E5
:102E800000AF78600B463B804FF00003BB604FF013
:102E90000003FB604FF000033B614FF000037B61D8
:102EA0003B88DBB24FEA5313DBB23B613B8803F054
:102EB0001F03FB60FB684FF0010202FA03F3FB60A3
:102EC0003B69012B07D17B689B899BB2FA6802EAB8
:102ED0000303FB6011E03B69022B07D17B681B8A6F
:102EE0009BB2FA6802EA0303FB6006E07B689B8AF8
:102EF0009BB2FA6802EA0303FB603B884FEA1323A4
:102F00009BB2BB60BB684FF0010202FA03F3BB60E7
:102F10007B681B889BB2BA6802EA0303BB60FB684C
:102F2000002B06D0BB68002B03D04FF001037B6160
:102F300002E04FF000037B617B69184607F1180738
:102F4000BD4680BC7047C04680B483B000AF786097
:102F50000B463B804FF000033B814FF000037B8129
:102F60003B884FEA13233B813B894FF0010202FA71
:102F700003F37B817B896FEA03039AB27B681A8033
:102F800007F10C07BD4680BC7047C04680B581B0D4
:102F900000AF38603A6845F20043C4F200039A4239
:102FA0000CD14FF400104FF00101FEF74BFF4FF42E
:102FB00000104FF00001FEF745FF0BE04FF48000DA
:102FC0004FF00101FEF73EFF4FF480004FF000018B
:102FD000FEF738FF07F10407BD4680BD80B58AB013
:102FE00000AF786039604FF00003FB834FF00003BF
:102FF0003B844FF004037B8441F20023C0F27A0348
:103000007B627B689B88FB83FB8B23F03F03FB8306
:1030100007F108031846FEF789FD3B697B627A6A6F
:103020004DF68363C4F21B33A3FB02134FEA9343B1
:103030003B84FA8B3B8C42EA0303FB837B68FA8B6D
:103040009A807B681B889BB21A464FF6FE73C0F2CB
:10305000000302EA03031A467B681A804FF000035C
:10306000FB833B681A6848F2A063C0F201039A42EE
:1030700019D83B681B684FEA43037A6AB2FBF3F343
:103080007B847B8C032B02D84FF004037B84FA8B68
:103090007B8C42EA0303FB833B8C03F101039AB26E
:1030A0007B681A844DE03B68DA884BF6FF739A42DE
:1030B0000AD13B681A6813464FEA430313447A6AFD
:1030C000B2FBF3F37B8410E03B681A6813464FEAC7
:1030D000830313444FEA830213447A6AB2FBF3F387
:1030E0007B847B8C43F480437B847B8C4FEA03534B
:1030F0004FEA1353002B03D17B8C43F001037B84F5
:103100007A8CFB8B42EA03039BB26FEA43436FEA7C
:103110005343FB833B8C4FF4967202FB03F244F65D
:10312000D353C1F2620383FB02134FEAA3114FEAA8
:10313000E273C3EB01039BB203F101039AB27B6814
:103140001A847B68FA8B9A837B681B889BB243F056
:1031500001039AB27B681A807B681B88FB83FB8B18
:1031600023F4806323F00A03FB833B689A883B685F
:103170005B8942EA03039AB2FB8B42EA0303FB83B7
:103180007B68FA8B1A803B689A893B681B8942EA04
:1031900003039AB27B681A8107F12807BD4680BDF8
:1031A00080B481B000AF38603B6841F288321A6069
:1031B0003B684FF000029A803B684BF6FF72DA8062
:1031C0003B684FF000021A813B684FF000025A81C1
:1031D0003B684FF480429A8107F10407BD4680BCEA
:1031E0007047C04680B482B000AF786039603B68F9
:1031F000002B08D07B681B889BB243F001039AB276
:103200007B681A800CE07B681B889BB21A464FF6DD
:10321000FE73C0F2000302EA03031A467B681A80B9
:1032200007F10807BD4680BC7047C04680B482B035
:1032300000AF786039603B68002B08D07B689B88C2
:103240009BB243F400639AB27B689A800CE07B687F
:103250009B889BB21A464FF2FF73C0F2000302EA4A
:1032600003031A467B689A8007F10807BD4680BCB5
:103270007047C04680B482B000AF786039603B6868
:10328000002B08D07B689B889BB243F480539AB292
:103290007B689A800CE07B689B889BB21A464EF64E
:1032A000FF73C0F2000302EA03031A467B689A80A8
:1032B00007F10807BD4680BC7047C04680B482B0A5
:1032C00000AF786039603B68002B08D07B681B88B2
:1032D0009BB243F480739AB27B681A800CE07B68DF
:1032E0001B889BB21A464FF6FF63C0F2000302EA46
:1032F00003031A467B681A8007F10807BD4680BCA5
:103300007047C04680B482B000AF786039603B68D7
:10331000002B08D07B681B889BB243F400739AB2E1
:103320007B681A800CE07B681B889BB21A464FF6BC
:10333000FF53C0F2000302EA03031A467B681A80B7
:1033400007F10807BD4680BC7047C04680B482B014
:1033500000AF786039603B68002B08D07B681B8821
:103360009BB243F480639AB27B681A800CE07B685E
:103370001B889BB21A464FF6FF33C0F2000302EAE5
:1033800003031A467B681A8007F10807BD4680BC14
:103390007047C04680B483B000AF78600B463B7086
:1033A0004FF000037B817B689B897B817B8923F0C5
:1033B000FE037B813B789BB203F0FE0379891A46BA
:1033C0000B4642EA03039BB27B817B687A899A8130
:1033D00007F10C07BD4680BC7047C04680B482B080
:1033E00000AF786039603B68002B08D07B689B8910
:1033F0009BB243F001039AB27B689A810CE07B6830
:103400009B899BB21A464FF6FE73C0F2000302EA94
:1034100003031A467B689A8107F10807BD4680BC02
:103420007047C04680B482B000AF786039603B68B6
:10343000002B08D07B681B889BB243F040039AB2F4
:103440007B681A800CE07B681B889BB21A464FF69B
:10345000BF73C0F2000302EA03031A467B681A80B6
:1034600007F10807BD4680BC7047C04680B483B0F2
:1034700000AFB8600B463A60BB803B68002B09D0B8
:10348000BB689B889AB2BB8842EA03039AB2BB68C6
:103490009A800BE0BB689B889AB2BB886FEA0303F3
:1034A0009BB202EA03039AB2BB689A8007F10C0749
:1034B000BD4680BC7047C04680B482B000AF786023
:1034C0000B463B703A787B681A8207F10807BD46C5
:1034D00080BC704780B481B000AF38603B681B8A05
:1034E0009BB2DBB2184607F10407BD4680BC7047AB
:1034F00080B483B000AFB86013460A463A713B709F
:103500003B78002B04D03B7943F001033B7103E08F
:103510003B7923F001033B713A79BB681A8207F1CA
:103520000C07BD4680BC704780B483B000AF7860A4
:103530000B463B704FF00003BB607B68BB603A7882
:10354000BB681344BB60BB681B889BB2184607F17D
:103550000C07BD4680BC704780B482B000AF786075
:1035600039603B68002B0AD07B681B889BB26FEAEE
:1035700043436FEA53439AB27B681A8008E07B6842
:103580001B889BB24FEA43434FEA53437A68138048
:1035900007F10807BD4680BC7047C04680B482B0C2
:1035A00000AF78600B463B803B88B3F5005F08D1E5
:1035B0007B681B889BB243F400539AB27B681A80E5
:1035C0000CE07B681B889BB21A464DF6FF73C0F275
:1035D000000302EA03031A467B681A8007F1080712
:1035E000BD4680BC7047C04680B482B000AF7860F2
:1035F00039603B68002B08D07B681B889BB243F482
:1036000080539AB27B681A800CE07B681B889BB25F
:103610001A464EF6FF73C0F2000302EA03031A468D
:103620007B681A8007F10807BD4680BC7047C0461A
:1036300080B482B000AF78600B463B803B88B3F526
:10364000006F08D17B681B889BB243F400639AB279
:103650007B681A800CE07B681B889BB21A464FF28D
:10366000FF73C0F2000302EA03031A467B681A8064
:1036700007F10807BD4680BC7047C04680B482B0E1
:1036800000AF786039603B68002B08D07B681B88EE
:103690009BB243F020039AB27B681A800CE07B68EF
:1036A0001B889BB21A464FF6DF73C0F2000302EA92
:1036B00003031A467B681A8007F10807BD4680BCE1
:1036C0007047C04680B481B000AF38603B681B8B48
:1036D0009BB24FEA13239BB2DBB2184607F10407F3
:1036E000BD4680BC7047C04680B482B000AF7860F1
:1036F00039603B68002B08D07B681B889BB243F085
:1037000010039AB27B681A800CE07B681B889BB21E
:103710001A464FF6EF73C0F2000302EA03031A469B
:103720007B681A8007F10807BD4680BC7047C04619
:1037300080B482B000AF786039603B68002B08D15C
:103740007B681B889BB243F080039AB27B681A8027
:103750000CE07B681B889BB21A464FF67F73C0F261
:10376000000302EA03031A467B681A8007F1080780
:10377000BD4680BC7047C04680B482B000AF786060
:103780000B463B803B88B3F5804F0DD07B689B8B0D
:103790009BB21A464BF6FF73C0F2000302EA030322
:1037A0001A467B689A8307E07B689B8B9BB243F445
:1037B00080439AB27B689A8307F10807BD4680BCB4
:1037C0007047C04680B484B000AF38604FF000034B
:1037D0007B604FF00003BB604FF00003FB603B6871
:1037E0009B8A9BB2BB603B681B8B9BB2FB60FB68F8
:1037F0004FEA0343FB60BA68FB6842EA030323F025
:103800007F437B607B68184607F11007BD4680BC8C
:103810007047C04680B486B000AF786039604FF022
:103820000003BB604FF00003FB604FF000033B61FF
:103830004FF000037B617B689B8A9BB2FB607B68D7
:103840001B8B9BB23B613B694FEA03433B61FA68C8
:103850003B6942EA030323F07F43BB60BA683B68DD
:103860009A4203D14FF001037B6102E04FF0000365
:103870007B617B69184607F11807BD4680BC70471D
:1038800080B485B000AF786039604FF000033B61D1
:103890004FF00003FB604FF00003BB607B68BB6030
:1038A0003B684FEA1373FB603B6823F07F433B6048
:1038B000FB68002B04D0BB6803F11403BB6007E076
:1038C0003B684FEA13433B60BB6803F11803BB60DE
:1038D000BB681A683B6802EA0303002B03D04FF071
:1038E00001033B6102E04FF000033B613B69184676
:1038F00007F11407BD4680BC7047C04680B483B052
:1039000000AF786039604FF00003BB603B6823F084
:103910007F43BB60BB689BB26FEA03039AB27B68CC
:103920009A8207F10C07BD4680BC704780B484B012
:1039300000AF786039604FF00003BB604FF00003C8
:10394000FB603B6803F0E0634FEA13427B689B88AF
:103950009BB202EA0303FB603B6823F07F433B60BA
:103960007B689B8A9BB21A463B6802EA0303002BE2
:1039700006D0FB68002B03D04FF00103BB6002E0D0
:103980004FF00003BB60BB68184607F11007BD4647
:1039900080BC704780B483B000AF786039604FF06E
:1039A0000003BB603B6823F07F43BB60BB689BB2F6
:1039B0006FEA03039AB27B689A8207F10C07BD464F
:1039C00080BC704780B481B000AF38603B681B6832
:1039D00023F001023B681A603B684FF000021A6056
:1039E0003B684FF000025A603B684FF000029A605B
:1039F0003B684FF00002DA603A6840F20803C4F214
:103A000002039A420CD140F20003C4F2020340F2D6
:103A10000002C4F20202526842F00F025A60DAE079
:103A20003A6840F21C03C4F202039A420CD140F2FD
:103A30000003C4F2020340F20002C4F20202526820
:103A400042F0F0025A60C6E03A6840F23003C4F235
:103A500002039A420CD140F20003C4F2020340F286
:103A60000002C4F20202526842F470625A60B2E08C
:103A70003A6840F24403C4F202039A420CD140F285
:103A80000003C4F2020340F20002C4F202025268D0
:103A900042F470425A609EE03A6840F25803C4F221
:103AA00002039A420CD140F20003C4F2020340F236
:103AB0000002C4F20202526842F470225A608AE0A4
:103AC0003A6840F26C03C4F202039A420CD140F20D
:103AD0000003C4F2020340F20002C4F20202526880
:103AE00042F470025A6076E03A6840F28003C4F211
:103AF00002039A420CD140F20003C4F2020340F2E6
:103B00000002C4F20202526842F070625A6062E03F
:103B10003A6840F20843C4F202039A420CD140F2E0
:103B20000043C4F2020340F20042C4F202025268AF
:103B300042F00F025A604EE03A6840F21C43C4F271
:103B400002039A420CD140F20043C4F2020340F255
:103B50000042C4F20202526842F0F0025A603AE0B7
:103B60003A6840F23043C4F202039A420CD140F268
:103B70000043C4F2020340F20042C4F2020252685F
:103B800042F470625A6026E03A6840F24443C4F25C
:103B900002039A420CD140F20043C4F2020340F205
:103BA0000042C4F20202526842F470425A6012E0CB
:103BB0003A6840F25843C4F202039A420BD140F2F1
:103BC0000043C4F2020340F20042C4F2020252680F
:103BD00042F470225A6007F10407BD4680BC70476A
:103BE00080B483B000AF786039604FF00003BB60F1
:103BF0007B681B68BB60BB6823F4FE4323F0F003C3
:103C0000BB603B689A683B681B6A42EA03023B68F8
:103C10001B6942EA03023B685B6942EA03023B68B4
:103C20009B6942EA03023B68DB6942EA03023B68A4
:103C30005B6A42EA03023B689B6A42EA0303BA6892
:103C400042EA0303BB607B68BA681A603B68DA68C3
:103C50007B685A603B681A687B689A603B685A6860
:103C60007B68DA6007F10C07BD4680BC7047C04630
:103C700080B481B000AF38603B684FF000021A603A
:103C80003B684FF000025A603B684FF000029A60B8
:103C90003B684FF00002DA603B684FF000021A61A7
:103CA0003B684FF000025A613B684FF000029A6196
:103CB0003B684FF00002DA613B684FF000021A6285
:103CC0003B684FF000025A623B684FF000029A6274
:103CD00007F10407BD4680BC7047C04680B482B07F
:103CE00000AF786039603B68002B06D07B681B68AA
:103CF00043F001027B681A6005E07B681B6823F0D3
:103D000001027B681A6007F10807BD4680BC704756
:103D100080B483B000AFB86079603A603B68002B34
:103D200007D0BB681A687B6842EA0302BB681A6066
:103D300008E0BB681A687B686FEA030302EA0302C3
:103D4000BB681A6007F10C07BD4680BC7047C046CF
:103D500080B481B000AF38603B685B689BB21846A6
:103D600007F10407BD4680BC7047C04680B483B0ED
:103D700000AF38604FF000037B604FF00003BB6082
:103D80003B6803F08053002B06D040F20043C4F29E
:103D900002031B68BB6005E040F20003C4F20203AB
:103DA0001B68BB60BA683B6802EA0303002B03D0C0
:103DB0004FF001037B6002E04FF000037B607B6803
:103DC000184607F10C07BD4680BC704780B481B02F
:103DD00000AF38603B6803F08053002B06D040F200
:103DE0000043C4F202033A685A6005E040F200035F
:103DF000C4F202033A685A6007F10407BD4680BC6A
:103E00007047C04680B483B000AF38604FF0000305
:103E10007B604FF00003BB603B6803F08053002BD6
:103E200006D040F20043C4F202031B68BB6005E009
:103E300040F20003C4F202031B68BB60BA683B682F
:103E400002EA0303002B03D04FF001037B6002E082
:103E50004FF000037B607B68184607F10C07BD46F6
:103E600080BC704780B481B000AF38603B6803F01D
:103E70008053002B06D040F20043C4F202033A689C
:103E80005A6005E040F20003C4F202033A685A6047
:103E900007F10407BD4680BC7047C04680B581B0BD
:103EA00000AF38603A6842F20043C4F201039A421C
:103EB0000CD14FF400704FF00101FDF799FF4FF462
:103EC00000704FF00001FDF793FF26E03A6842F6DC
:103ED0000003C4F201039A420CD14FF480604FF00A
:103EE0000101FDF785FF4FF480604FF00001FDF701
:103EF0007FFF12E03A6843F60043C4F201039A429E
:103F00000BD14FF400404FF00101FDF771FF4FF46A
:103F100000404FF00001FDF76BFF07F10407BD46BD
:103F200080BDC04680B484B000AF786039604FF087
:103F30000003BB604FF00003FB737B685B68BB60F2
:103F4000BB6823F4702323F48073BB603B681A685A
:103F50003B685B684FEA032342EA0303BA6842EA1C
:103F60000303BB607B68BA685A607B689B68BB6070
:103F7000BA684FF2FD73CFF6F17302EA0303BB6038
:103F80003B681A693B68DB6842EA03023B689B684E
:103F90004FEA430342EA0303BA6842EA0303BB6001
:103FA0007B68BA689A607B68DB6ABB60BB6823F495
:103FB0007003BB603B681B7D03F1FF33DAB2FB7B10
:103FC00042EA0303FB73FB7B4FEA0353BA6842EAFE
:103FD0000303BB607B68BA68DA6207F11007BD466D
:103FE00080BC704780B481B000AF38603B684FF050
:103FF00000021A603B684FF000025A603B684FF0C5
:1040000000029A603B684FF00002DA603B684FF0B4
:1040100000021A613B684FF001021A7507F10407AC
:10402000BD4680BC7047C04680B482B000AF7860A7
:1040300039603B68002B06D07B689B6843F0010227
:104040007B689A6005E07B689B6823F001027B68CF
:104050009A6007F10807BD4680BC704780B482B003
:1040600000AF786039603B68002B06D07B689B68A6
:1040700043F480727B689A6005E07B689B6823F458
:1040800080727B689A6007F10807BD4680BC704764
:1040900080B484B000AFB8600B463A60BB804FF08C
:1040A0000003FB73BB88FB733B68002B07D0BB6826
:1040B0005A68FB7B42EA0302BB685A6008E0BB68AF
:1040C0005A68FB7B6FEA030302EA0302BB685A608B
:1040D00007F11007BD4680BC7047C04680B481B070
:1040E00000AF38603B689B6843F008023B689A6009
:1040F00007F10407BD4680BC7047C04680B482B05B
:1041000000AF38604FF000037B603B689B6803F0B2
:104110000803002B03D04FF001037B6002E04FF057
:1041200000037B607B68184607F10807BD4680BC2A
:104130007047C04680B481B000AF38603B689B6870
:1041400043F004023B689A6007F10407BD4680BC57
:104150007047C04680B482B000AF38604FF00003B3
:104160007B603B689B6803F00403002B03D04FF097
:1041700001037B6002E04FF000037B607B68184620
:1041800007F10807BD4680BC7047C04680B482B0C6
:1041900000AF786039603B68002B06D07B689B6875
:1041A00043F4A0027B689A6005E07B689B6823F477
:1041B000A0027B689A6007F10807BD4680BC704783
:1041C00080B482B000AF38604FF000037B603B6882
:1041D0009B6803F48003002B03D04FF001037B6046
:1041E00002E04FF000037B607B68184607F1080788
:1041F000BD4680BC7047C04680B484B000AF7860D4
:104200000B463B704FF00003BB604FF00003FB60B8
:104210007B685B68BB60BB6823F46043BB603B7832
:1042200003F1FF33FB60FB684FEA4333BA6842EAAD
:104230000303BB607B68BA685A6007F11007BD468C
:1042400080BC704780B482B000AF786039603B6852
:10425000002B06D07B685B6843F400627B685A6081
:1042600005E07B685B6823F400627B685A6007F1B5
:104270000807BD4680BC704780B486B000AFF860C8
:1042800039723A713B704FF000033B614FF000030D
:104290007B613B7A092B29D9FB68DB683B613A7A61
:1042A00013464FEA43031344A3F11E034FF00702E2
:1042B00002FA03F37B617B696FEA03033A6902EA5E
:1042C00003033B6139783A7A13464FEA43031344B8
:1042D000A3F11E0301FA03F37B613A697B6942EAA9
:1042E00003033B61FB683A69DA6024E0FB681B6901
:1042F0003B613A7A13464FEA430313444FF00702F7
:1043000002FA03F37B617B696FEA03033A6902EA0D
:1043100003033B6139783A7A13464FEA4303134467
:1043200001FA03F37B613A697B6942EA03033B616B
:10433000FB683A691A613B79062B29D8FB685B6BED
:104340003B613B7903F1FF3213464FEA8303134489
:104350004FF01F0202FA03F37B617B696FEA0303EC
:104360003A6902EA03033B61397A3B7903F1FF3290
:1043700013464FEA8303134401FA03F37B613A695E
:104380007B6942EA03033B61FB683A695A6355E083
:104390003B790C2B29D8FB681B6B3B613A791346A0
:1043A0004FEA83031344A3F123034FF01F0202FAE1
:1043B00003F37B617B696FEA03033A6902EA030353
:1043C0003B61397A3A7913464FEA83031344A3F1E8
:1043D000230301FA03F37B613A697B6942EA030331
:1043E0003B61FB683A691A6328E0FB68DB6A3B6162
:1043F0003A7913464FEA83031344A3F141034FF084
:104400001F0202FA03F37B617B696FEA03033A69D7
:1044100002EA03033B61397A3A7913464FEA830390
:104420001344A3F1410301FA03F37B613A697B6909
:1044300042EA03033B61FB683A69DA6207F1180755
:10444000BD4680BC7047C04680B482B000AF786083
:1044500039603B68002B06D07B689B6843F4801270
:104460007B689A6005E07B689B6823F480127B6818
:104470009A6007F10807BD4680BC704780B481B0E0
:1044800000AF38603B68DB6C9BB2184607F104074D
:10449000BD4680BC7047C04680B400AF42F24C437A
:1044A000C4F201031B681846BD4680BC7047C04675
:1044B00080B482B000AF786039603B68002B06D0D2
:1044C0007B685B6843F480627B685A6005E07B68C8
:1044D0005B6823F480627B685A6007F10807BD4679
:1044E00080BC704780B482B000AF786039603B68B0
:1044F000002B06D07B685B6843F480527B685A606F
:1045000005E07B685B6823F480527B685A6007F1A2
:104510000807BD4680BC704780B483B000AF7860A8
:1045200039604FF00003BB607B689B68BB60BB6871
:1045300023F4E043BB60BA683B6842EA0303BB6014
:104540007B68BA689A6007F10C07BD4680BC70476B
:1045500080B482B000AF786039603B68002B06D031
:104560007B689B6843F400427B689A6005E07B6847
:104570009B6823F400427B689A6007F10807BD46F8
:1045800080BC704780B482B000AF786039603B680F
:10459000002B06D07B689B6843F402127B689A600C
:1045A00005E07B689B6823F402127B689A6007F140
:1045B0000807BD4680BC704780B482B000AF386049
:1045C0004FF000037B603B689B6803F40013002BF3
:1045D00003D04FF001037B6002E04FF000037B60EB
:1045E0007B68184607F10807BD4680BC7047C04687
:1045F00080B487B000AFF86039723A713B704FF009
:1046000000033B614FF000037B614FF00003BB618F
:104610003B7A092B29D9FB68DB683B613A7A134660
:104620004FEA43031344A3F11E034FF0070202FABB
:1046300003F37B617B696FEA03033A6902EA0303D0
:104640003B6139783A7A13464FEA43031344A3F1A6
:104650001E0301FA03F37B613A697B6942EA0303B3
:104660003B61FB683A69DA6024E0FB681B693B61E7
:104670003A7A13464FEA430313444FF0070202FA13
:1046800003F37B617B696FEA03033A6902EA030380
:104690003B6139783A7A13464FEA4303134401FAEF
:1046A00003F37B613A697B6942EA03033B61FB6880
:1046B0003A691A61FB689B6B3B613B6903F44013E9
:1046C0004FEA1353BB61BB69DBB26FEA0303DAB293
:1046D0003B791344DBB203F10303DBB21A46134602
:1046E0004FEA830313444FF01F0202FA03F37B6186
:1046F0007B696FEA03033A6902EA03033B61397A93
:10470000BB69DBB26FEA0303DAB23B791344DBB275
:1047100003F10303DBB21A4613464FEA8303134443
:1047200001FA03F37B613A697B6942EA03033B6167
:10473000FB683A699A6307F11C07BD4680BC704765
:1047400080B484B000AF78600B463B704FF000033C
:10475000BB604FF00003FB607B689B6BBB60BB687A
:1047600023F44013BB603B7803F1FF33FB60FB682D
:104770004FEA0353BA6842EA0303BB607B68BA6836
:104780009A6307F11007BD4680BC704780B484B0BF
:1047900000AFB86013460A463A713B804FF0000301
:1047A000FB60BB68FB603A79FB681344FB60FB6805
:1047B0003A881A6007F11007BD4680BC7047C046B2
:1047C00080B483B000AF78600B463B704FF00003BD
:1047D000BB607B68BB603A78BB68134403F1280375
:1047E000BB60BB681B689BB2184607F10C07BD464F
:1047F00080BC704780B483B000AF786039604FF000
:104800000003BB607B685B68BB60BB6823F440034C
:1048100023F40073BB60BA683B6842EA0303BB60E1
:104820007B68BA685A6007F10C07BD4680BC7047C8
:1048300080B483B000AFB86013460A46BA803B80AC
:10484000BA88BB685A623A88BB689A6207F10C075B
:10485000BD4680BC7047C04680B483B000AF78606E
:104860000B463B704FF00003BB607B685B68BB602E
:10487000BB6823F01F03BB603B78BA6842EA0303BE
:10488000BB607B68BA685A6007F10C07BD4680BC04
:104890007047C04680B481B000AF38603B68002BE1
:1048A0000CD042F20043C4F2010342F20042C4F2CF
:1048B0000102926842F400029A600BE042F2004367
:1048C000C4F2010342F20042C4F20102926822F4EF
:1048D00000029A6007F10407BD4680BC7047C046DD
:1048E00080B483B000AF78600B463B704FF000039C
:1048F000BB607B681A683B7802EA0303002B03D095
:104900004FF00103BB6002E04FF00003BB60BB68E7
:10491000184607F10C07BD4680BC704780B482B0D2
:1049200000AF78600B463B703B786FEA03027B6810
:104930001A6007F10807BD4680BC704780B485B097
:1049400000AF78600B463B804FF00003BB604FF038
:104950000003FB604FF000033B613B884FEA1323E9
:104960009BB2FB607B685A683B88DBB202EA0303B8
:104970003B617B681A68FB6802EA0303002B06D0E0
:104980003B69002B03D04FF00103BB6002E04FF006
:104990000003BB60BB68184607F11407BD4680BC26
:1049A0007047C04680B483B000AF78600B463B8050
:1049B0004FF00003FB723B884FEA13239BB2FB725C
:1049C000FB7A6FEA03027B681A6007F10C07BD46A9
:1049D00080BC704780B500AF4FF000504FF0010130
:1049E000FDF730FA4FF000504FF00001FDF72AFAC2
:1049F000BD4680BD80B484B000AF786039604FF0B0
:104A00000003BB604FF00003FB6047F20043C4F2B9
:104A100000031B68BB607B6840F6FE7202FA03F37A
:104A20006FEA0303BA6802EA0303BB603B681A68D3
:104A30003B685B6842EA03023B689B6842EA030208
:104A40003B68DB6842EA0303FB607B68FA6802FAB2
:104A500003F3BA6842EA0303BB6047F20043C4F2BF
:104A60000003BA681A6007F11007BD4680BC7047A2
:104A700080B481B000AF38603B684FF000021A602C
:104A80003B684FF000025A603B684FF000029A60AA
:104A90003B684FF00002DA6007F10407BD4680BCB6
:104AA0007047C04680B482B000AF786039603B6820
:104AB000002B11D047F20043C4F2000347F200423A
:104AC000C4F2000211687A684FF0010000FA02F2A5
:104AD00041EA02021A6012E047F20043C4F2000306
:104AE00047F20042C4F2000211687A684FF00100F8
:104AF00000FA02F26FEA020201EA02021A6007F10A
:104B00000807BD4680BC704780B482B000AF7860B3
:104B100039603B68002B11D047F20043C4F2000318
:104B200047F20042C4F2000211687A684FF48050E4
:104B300000FA02F241EA02021A6012E047F2004370
:104B4000C4F2000347F20042C4F2000211687A681E
:104B50004FF4805000FA02F26FEA020201EA020208
:104B60001A6007F10807BD4680BC704780B482B068
:104B700000AF786039603B68002B13D047F20043E8
:104B8000C4F2000347F20042C4F2000251687A689E
:104B90004FEA12124FF0010000FA02F241EA02025B
:104BA0005A6014E047F20043C4F2000347F20042A7
:104BB000C4F2000251687A684FEA12124FF0010005
:104BC00000FA02F26FEA020201EA02025A6007F1F9
:104BD0000807BD4680BC704780B481B000AF386024
:104BE0003B68002B0CD047F20043C4F2000347F2AD
:104BF0000042C4F20002526842F003025A600BE025
:104C000047F20043C4F2000347F20042C4F200023C
:104C1000526822F003025A6007F10407BD4680BCC7
:104C20007047C04680B483B000AFB86079603A6026
:104C30003B68002B10D047F20043C4F2000347F258
:104C40000042C4F200021168BA68786800FA02F201
:104C500041EA02021A6011E047F20043C4F2000385
:104C600047F20042C4F200021168BA68786800FA9C
:104C700002F26FEA020201EA02021A6007F10C076F
:104C8000BD4680BC7047C04680B483B000AF78603A
:104C90000B463B804FF00003BB6047F20043C4F279
:104CA0000003BB60BA687B68134403F10803BB6070
:104CB000BB683A881A6007F10C07BD4680BC704794
:104CC00080B483B000AF78600B463B804FF00003A8
:104CD000BB6047F20043C4F20003BB60BA687B6864
:104CE000134403F11403BB60BB683A881A6007F1F0
:104CF0000C07BD4680BC704780B485B000AFB8607B
:104D000013460A46BA803B804FF00003FB604FF029
:104D100000033B61BB68082B07D1BB884FEA032225
:104D20003B8842EA0303FB6006E0BB884FEA03428C
:104D30003B8842EA0303FB6047F20043C4F20003EE
:104D40003B61BA683B69134403F120033B613B6953
:104D5000FA681A6007F11407BD4680BC7047C04668
:104D600080B482B000AF38604FF000037B6047F240
:104D70000043C4F200037B603B684FEA93027B6808
:104D8000134403F12C037B607B681B689BB21846BD
:104D900007F10807BD4680BC7047C04680B581B0AA
:104DA00000AF38603A6842F60043C4F201039A4209
:104DB0000CD14FF400604FF00101FDF719F84FF4EA
:104DC00000604FF00001FDF713F887E03B68B3F196
:104DD000804F0CD14FF001004FF00101FDF732F888
:104DE0004FF001004FF00001FDF72CF876E03A6833
:104DF00040F20043C4F200039A420CD14FF002008B
:104E00004FF00101FDF71EF84FF002004FF00001D6
:104E1000FDF718F862E03A6840F60003C4F20003B8
:104E20009A420CD14FF004004FF00101FDF70AF84F
:104E30004FF004004FF00001FDF704F84EE03A682F
:104E400040F60043C4F200039A420CD14FF0080030
:104E50004FF00101FCF7F6FF4FF008004FF00001A2
:104E6000FCF7F0FF3AE03A6841F20003C4F20003B5
:104E70009A420CD14FF010004FF00101FCF7E2FF15
:104E80004FF010004FF00001FCF7DCFF26E03A681D
:104E900041F20043C4F200039A420CD14FF02000CB
:104EA0004FF00101FCF7CEFF4FF020004FF0000162
:104EB000FCF7C8FF12E03A6843F20043C4F2010372
:104EC0009A420BD14FF400504FF00101FCF790FFD4
:104ED0004FF400504FF00001FCF78AFF07F1040780
:104EE000BD4680BD80B482B000AF786039607B6819
:104EF0001B889BB203F08F037A6813807B681B8842
:104F00009AB23B68D9883B685B8841EA03039BB24D
:104F100042EA03039AB27B681A803B689A887B68EE
:104F20009A853B681A887B681A857A6842F600433E
:104F3000C4F201039A4206D07A6843F20043C4F2F5
:104F400001039A4204D13B681B7A1A467B681A8691
:104F50007B684FF001029A8207F10807BD4680BCCA
:104F60007047C04680B484B000AF786039604FF0BD
:104F700000037B814FF00003BB814FF00003FB81F6
:104F80007B681B8C9BB21A464FF6FE73C0F200037F
:104F900002EA03031A467B681A847B681B8CBB8178
:104FA0007B689B88FB817B681B8B7B817B8923F0E3
:104FB00073037B813B681A887B8942EA03037B8108
:104FC000BB8923F00203BB813B681A89BB8942EA93
:104FD0000303BB813B685A88BB8942EA0303BB8158
:104FE0007A6842F60043C4F201039A4206D07A6816
:104FF00043F20043C4F201039A422FD1BB8923F04C
:105000000803BB813B685A89BB8942EA0303BB8121
:10501000BB8923F00403BB813B689A88BB8942EAC1
:105020000303BB81FB8923F480734FEA43434FEAB8
:105030005343FB81FB8923F400734FEA43434FEA58
:105040005343FB813B689A89FB8942EA0303FB8156
:105050003B68DA89FB8942EA0303FB817B68FA89B2
:105060009A807B687A891A833B68DA887B689A869B
:105070007B68BA891A8407F11007BD4680BC704767
:1050800080B484B000AF786039604FF000037B815A
:105090004FF00003BB814FF00003FB817B681B8C4A
:1050A0009BB21A464FF6EF73C0F2000302EA030305
:1050B0001A467B681A847B681B8CBB817B689B8843
:1050C000FB817B681B8B7B817B8923F4E6437B819F
:1050D0003B681B884FEA03239AB27B8942EA0303A9
:1050E0007B81BB8923F02003BB813B681B894FEA8E
:1050F00003139AB2BB8942EA0303BB813B685B8816
:105100004FEA03139AB2BB8942EA0303BB817A6870
:1051100042F60043C4F201039A4206D07A6843F291
:105120000043C4F201039A423BD1BB8923F08003C0
:10513000BB813B685B894FEA03139AB2BB8942EAA1
:105140000303BB81BB8923F04003BB813B689B8881
:105150004FEA03139AB2BB8942EA0303BB81FB897E
:1051600023F480634FEA43434FEA5343FB81FB89B7
:1051700023F400634FEA43434FEA5343FB813B6808
:105180009B894FEA83039AB2FB8942EA0303FB81BE
:105190003B68DB894FEA83039AB2FB8942EA030347
:1051A000FB817B68FA899A807B687A891A833B68DD
:1051B000DA887B681A877B68BA891A8407F1100736
:1051C000BD4680BC7047C04680B484B000AF7860F4
:1051D00039604FF000037B814FF00003BB814FF03B
:1051E0000003FB817B681B8C9BB21A464FF6FF6362
:1051F000C0F2000302EA03031A467B681A847B6844
:105200001B8CBB817B689B88FB817B689B8B7B8134
:105210007B8923F073037B813B681A887B8942EA90
:1052200003037B81BB8923F40073BB813B681B892B
:105230004FEA03239AB2BB8942EA0303BB813B686E
:105240005B884FEA03239AB2BB8942EA0303BB811E
:105250007A6842F60043C4F201039A4206D07A68A3
:1052600043F20043C4F201039A423BD1BB8923F4C9
:105270000063BB813B685B894FEA03239AB2BB8919
:1052800042EA0303BB81BB8923F48063BB813B6893
:105290009B884FEA03239AB2BB8942EA0303BB818E
:1052A000FB8923F480534FEA43434FEA5343FB8186
:1052B000FB8923F400534FEA43434FEA5343FB81F6
:1052C0003B689B894FEA03139AB2FB8942EA0303C6
:1052D000FB813B68DB894FEA03139AB2FB8942EA00
:1052E0000303FB817B68FA899A807B687A899A83B9
:1052F0003B68DA887B689A877B68BA891A8407F1E9
:105300001007BD4680BC704780B484B000AF7860A1
:1053100039604FF000037B814FF00003BB814FF0F9
:105320000003FB817B681B8C9BB21A464EF6FF7311
:10533000C0F2000302EA03031A467B681A847B6802
:105340001B8CBB817B689B88FB817B689B8B7B81F3
:105350007B8923F4E6437B813B681B884FEA032368
:105360009AB27B8942EA03037B81BB8923F4005311
:10537000BB813B681B894FEA03339AB2BB8942EA7F
:105380000303BB813B685B884FEA03339AB2BB8956
:1053900042EA0303BB817A6842F60043C4F2010388
:1053A0009A4206D07A6843F20043C4F201039A425B
:1053B0000ED1FB894FEA83434FEA9343FB813B685D
:1053C0009B894FEA83139AB2FB8942EA0303FB816C
:1053D0007B68FA899A807B687A899A833B68DA8845
:1053E0007B68A3F840207B68BA891A8407F110070C
:1053F000BD4680BC7047C04680B582B000AF7860C3
:1054000039603B681B88002B11D13B685B881946CB
:105410003B689B881A463B681B89786801F06EFAE6
:105420003B68DB887868194601F0F6F83CE03B6899
:105430001B88042B11D13B685B8819463B689B880D
:105440001A463B681B89786801F0A0FA3B68DB8844
:105450007868194601F002F926E03B681B88082BA2
:1054600011D13B685B8819463B689B881A463B68AC
:105470001B89786801F0E0FA3B68DB887868194698
:1054800001F010F910E03B685B8819463B689B8887
:105490001A463B681B89786801F01CFB3B68DB8877
:1054A0007868194601F020F907F10807BD4680BD6C
:1054B00080B583B000AF786039604FF000033B8166
:1054C0004FF001037B813B685B88002B03D14FF0D9
:1054D00002033B8102E04FF000033B813B689B8865
:1054E000012B03D14FF002037B8102E04FF0010357
:1054F0007B813B681B88002B1ED13B685B8819466B
:105500003B689B881A463B681B89786801F0F6F96E
:105510003B68DB887868194601F07EF839897A891A
:105520003B681B89786801F031FA3B68DB88786852
:10553000194601F093F81DE03B685B8819463B680B
:105540009B881A463B681B89786801F01FFA3B6804
:10555000DB887868194601F081F839897A893B68D7
:105560001B89786801F0CAF93B68DB8878681946BE
:1055700001F052F807F10C07BD4680BD80B482B03F
:1055800000AF786039603B681A883B685B8842EA04
:1055900003039AB23B689B8842EA03039AB23B68D2
:1055A000DB8842EA03039AB23B681B8942EA0303A1
:1055B0009AB23B685B8942EA03039AB23B689B89D3
:1055C00042EA03039AB27B68A3F8442007F1080774
:1055D000BD4680BC7047C04680B481B000AF386023
:1055E0003B684FF6FF729A803B684FF000021A80CA
:1055F0003B684FF00002DA803B684FF000025A80AF
:105600003B684FF000021A7207F10407BD4680BCE8
:105610007047C04680B481B000AF38603B684FF03F
:1056200000021A803B684FF000025A803B684FF03E
:1056300000029A803B684FF00002DA803B684FF02E
:1056400000021A813B684FF000025A813B684FF01C
:1056500000029A813B684FF00002DA8107F10407EB
:10566000BD4680BC7047C04680B481B000AF386092
:105670003B684FF000021A803B684FF000025A80EE
:105680003B684FF001029A803B684FF00002DA80DD
:105690003B684FF000021A8107F10407BD4680BC49
:1056A0007047C04680B481B000AF38603B684FF0AF
:1056B00000021A803B684FF000025A803B684FF0AE
:1056C00000029A803B684FF00002DA803B684FF09E
:1056D00000021A813B684FF000025A813B684FF08C
:1056E00000029A8107F10407BD4680BC7047C0469E
:1056F00080B482B000AF786039603B68002B08D07E
:105700007B681B889BB243F001039AB27B681A80C6
:105710000CE07B681B889BB21A4640F2FE33C0F255
:10572000000302EA03031A467B681A8007F10807A0
:10573000BD4680BC7047C04680B482B000AF786080
:1057400039603B68002B0CD07B68B3F844309BB2C7
:105750006FEA43436FEA53439AB27B68A3F844204D
:105760000AE07B68B3F844309BB24FEA43434FEA08
:1057700053437A68A2F8443007F10807BD4680BC5D
:105780007047C04680B483B000AFB8600B463A6043
:10579000BB803B68002B09D0BB689B899AB2BB8851
:1057A00042EA03039AB2BB689A810BE0BB689B890B
:1057B0009AB2BB886FEA03039BB202EA03039AB270
:1057C000BB689A8107F10C07BD4680BC7047C04694
:1057D00080B482B000AF78600B463B807B683A882B
:1057E0009A8207F10807BD4680BC704780B483B039
:1057F00000AFB86013460A46BA803B80BA883B883F
:1058000042EA03039AB2BB68A3F8482007F10C07E9
:10581000BD4680BC7047C04680B483B000AFB8605E
:105820000B463A60BB803B68002B09D0BB689B8964
:105830009AB2BB8842EA03039AB2BB689A810BE032
:10584000BB689B899AB2BB886FEA03039BB202EAEA
:1058500003039AB2BB689A8107F10C07BD4680BC6E
:105860007047C04680B481B000AF38603B681B8988
:105870009BB21A464FF6F873C0F2000302EA030324
:105880001A463B681A8107F10407BD4680BC704781
:1058900080B582B000AF78600B463B803B8878686B
:1058A000194600F0DDF87B681B899BB243F00703C3
:1058B0009AB27B681A8107F10807BD4680BDC046D1
:1058C00080B584B000AFF8603981BA803B803B89F5
:1058D000602B08D1BA883B88F86811464FF0010266
:1058E00001F054F807E0BA883B88F86811464FF099
:1058F000010201F003F83B89F868194600F0B0F89E
:10590000FB681B899BB243F007039AB2FB681A81BC
:1059100007F11007BD4680BD80B585B000AFF860C7
:105920003981BA803B804FF000037B823989BA8885
:105930003B88F86800F034F8FB681B897B827B8A1F
:1059400023F007037B827B8A43F007037B827B8AF9
:1059500023F070037B827B8A43F070037B82FB68B9
:105960007A8A1A8107F11407BD4680BD80B584B0DC
:1059700000AFF8603981BA803B803989BA883B88AA
:10598000F86800F00DF8FB681B899BB243F4804374
:105990009AB2FB681A8107F11007BD4680BDC04668
:1059A00080B485B000AFF8603981BA803B804FF099
:1059B00000037B82FB681B897B827B8A03F0FF03E9
:1059C0007B823B884FEA03239AB2BB8842EA0303F7
:1059D0009AB23B8942EA03039AB27B8A42EA030302
:1059E0007B82FB687A8A1A8107F11407BD4680BC66
:1059F0007047C04680B483B000AFB86013460A4613
:105A0000BA803B80BB68BA881A85BB683A889A829C
:105A100007F10C07BD4680BC7047C04680B483B018
:105A200000AF78600B463B804FF000037B817B68C2
:105A30001B887B817B8923F070034FEA83534FEAF5
:105A400093537B817A893B8842EA03037B817B689D
:105A50007A891A8007F10C07BD4680BC7047C046A2
:105A600080B483B000AF78600B463B804FF00003FA
:105A70007B817B681B897B817B8923F070037B8121
:105A80007A893B8842EA03037B817B687A891A81A1
:105A900007F10C07BD4680BC7047C04680B486B095
:105AA00000AFF8603981BA803B804FF000037B8201
:105AB0004FF00003BB824FF00003FB82FB681B89A1
:105AC0007B82FB681B8BBB82FB681B8CFB827B8A07
:105AD00023F007037B827A8A3B8942EA03037B82B5
